:10000000BEC00000D7C00000D5C00000D3C00000B3
:10001000D1C00000CFC00000CDC00000CBC00000A8
:10002000C9C00000C7C00000ABC40000E0C40000AD
:10003000C1C00000BFC00000BDC00000BBC00000C8
:10004000B9C00000B7C00000B5C00000B3C00000D8
:10005000B1C00000AFC00000ADC00000ACC00000E7
:10006000A9C00000A7C00000A5C00000A3C00000F8
:10007000A1C000009FC000009DC000009BC0000008
:1000800099C0000097C0000095C0000093C0000018
:1000900091C000008FC000008DC000008BC0000028
:1000A00089C0000087C0000085C00000000100007A
:1000B000E5001200020000F70029002200002001E4
:1000C0001C00210000090109000300003C0104019B
:1000D0000309044001100203090452012A01C13638
:1000E00001C03600001201000200000020C016FF0F
:1000F0000F00010102000109022900010100C032C4
:10010000090400000203000000092111010001227E
:100110001C00070581034000020705020340000898
:1001200006ABFF0A0002A1017508150026FF009525
:100130004009018102954009029102C004030904AB
:1001400010034D00660067004E0061006D00650001
:1001500000002A035400650065006E0073007900FA
:100160002000520061007700200048004900440050
:1001700020004300530035003700320000001124F6
:100180001FBECFEFDAE0DEBFCDBF11E0A0E0B1E0EF
:10019000E6EDFCE002C005900D92A030B107D9F762
:1001A00011E0A0E0B1E001C01D92A534B107E1F774
:1001B0001AD08FC525CF1F920F920FB60F92112420
:1001C0008F93809101018F5F809301018B3728F01D
:1001D0001092010181E0809300018F910F900FBE7A
:1001E0000F901F901895CF93DF9380E88093610064
:1001F00010926100A9D0BFD08823E9F380E197E293
:1002000020E931E0F9013197F1F70197D9F714BCF2
:1002100085E085BD81E080936E00C0E9D1E085E096
:1002200091E060E0ABD018160CF082C0809105011F
:10023000833609F436C0843630F4813671F0823664
:1002400009F076C01CC0853609F44FC0853608F425
:100250003AC0863609F06CC05AC0549A5C9A88E855
:1002600093E1FE013197F1F70197D9F75C9888E89F
:1002700093E1FE013197F1F70197D9F759C0569AEA
:100280005E9A88E893E1FE013197F1F70197D9F77B
:100290005E9888E893E1FE013197F1F70197D9F76D
:1002A00047C0579A5F9A88E893E1FE013197F1F7CA
:1002B0000197D9F75F9888E893E1FE013197F1F74C
:1002C0000197D9F735C0519A599A88E893E1FE0110
:1002D0003197F1F70197D9F7599888E893E1FE0132
:1002E0003197F1F70197D9F723C0529A5A9A88E8C3
:1002F00093E1FE013197F1F70197D9F75A9888E811
:1003000093E1FE013197F1F70197D9F711C0539AA4
:100310005B9A88E893E1FE013197F1F70197D9F7ED
:100320005B9888E893E1FE013197F1F70197D9F7DF
:1003300080910001882309F472CF1092000185E0BA
:1003400091E062E39CD16BCF81E08093D70080EA9B
:100350008093D80082E189BD09B400FEFDCF80E919
:100360008093D8001092E000109202018CE08093FC
:10037000E20078940895809102010895209102018D
:10038000222309F47AC12FB7F8946093030132E075
:100390003093E9004091E80045FD0FC02FBF209148
:1003A0000301222311F480E0089520910201222309
:1003B00009F463C12FB7F894EBCF3091F100FC0141
:1003C00031933091F100DC0111963C93DF011196DD
:1003D0008091F1008183FD0131968091F1001196A9
:1003E0008C93DF0111968091F1008183FD0131969C
:1003F0008091F10011968C93DF0111968091F100AC
:100400008183FD0131968091F10011968C93DF017B
:1004100011968091F1008183FD0131968091F10068
:1004200011968C93DF0111968091F1008183FD017B
:1004300031968091F10011968C93DF011196809195
:10044000F1008183FD0131968091F10011968C932A
:10045000DF0111968091F1008183FD013196809139
:10046000F10011968C93DF0111968091F100818348
:10047000FD0131968091F10011968C93DF01119668
:100480008091F1008183FD0131968091F1001196F8
:100490008C93DF0111968091F1008183FD013196EB
:1004A0008091F10011968C93DF0111968091F100FB
:1004B0008183FD0131968091F10011968C93DF01CB
:1004C00011968091F1008183FD0131968091F100B8
:1004D00011968C93DF0111968091F1008183FD01CB
:1004E00031968091F10011968C93DF0111968091E5
:1004F000F1008183FD0131968091F10011968C937A
:10050000DF0111968091F1008183FD013196809188
:10051000F10011968C93DF0111968091F100818397
:10052000FD0131968091F10011968C93DF011196B7
:100530008091F1008183FD0131968091F100119647
:100540008C93DF0111968091F1008183FD0131963A
:100550008091F10011968C93DF0111968091F1004A
:100560008183FD0131968091F10011968C93DF011A
:1005700011968091F1008183FD0131968091F10007
:1005800011968C93DF0111968091F1008183FD011A
:1005900031968091F10011968C93DF011196809134
:1005A000F1008183FD0131968091F10011968C93C9
:1005B000DF0111968091F1008183FD0131968091D8
:1005C000F10011968C93DF0111968091F1008183E7
:1005D000FD0131968091F10011968C93DF01119607
:1005E0008091F1008183FD0131968091F100119697
:1005F0008C93DF0111968091F1008183FD0131968A
:100600008091F10011968C93DF0111968091F10099
:100610008183FD0131968091F10011968C93DF0169
:1006200011968091F1008183FD0131968091F10056
:1006300011968C93DF0111968091F1008183FD0169
:1006400031968091F10011968C93DF011196809183
:10065000F1008183FD0131968091F10011968C9318
:1006600011978091F10081838091F10082838BE664
:100670008093E8002FBF80E408958FEF08952091C4
:100680000201222309F47AC12FB7F8946093040180
:1006900031E03093E9004091E80045FD0FC02FBFE5
:1006A00020910401222311F480E008952091020199
:1006B000222309F463C12FB7F894EBCFFC013191E9
:1006C0003093F100DC0111968C918093F100DF01F1
:1006D000119681818093F100FD01319611968C91E4
:1006E0008093F100DF01119681818093F100FD017B
:1006F000319611968C918093F100DF0111968181E2
:100700008093F100FD01319611968C918093F10058
:10071000DF01119681818093F100FD0131961196E0
:100720008C918093F100DF01119681818093F1001B
:10073000FD01319611968C918093F100DF011196A5
:1007400081818093F100FD01319611968C91809307
:10075000F100DF01119681818093F100FD01319656
:1007600011968C918093F100DF0111968181809325
:10077000F100FD01319611968C918093F100DF011B
:10078000119681818093F100FD01319611968C9133
:100790008093F100DF01119681818093F100FD01CA
:1007A000319611968C918093F100DF011196818131
:1007B0008093F100FD01319611968C918093F100A8
:1007C000DF01119681818093F100FD013196119630
:1007D0008C918093F100DF01119681818093F1006B
:1007E000FD01319611968C918093F100DF011196F5
:1007F00081818093F100FD01319611968C91809357
:10080000F100DF01119681818093F100FD013196A5
:1008100011968C918093F100DF0111968181809374
:10082000F100FD01319611968C918093F100DF016A
:10083000119681818093F100FD01319611968C9182
:100840008093F100DF01119681818093F100FD0119
:10085000319611968C918093F100DF011196818180
:100860008093F100FD01319611968C918093F100F7
:10087000DF01119681818093F100FD01319611967F
:100880008C918093F100DF01119681818093F100BA
:10089000FD01319611968C918093F100DF01119644
:1008A00081818093F100FD01319611968C918093A6
:1008B000F100DF01119681818093F100FD013196F5
:1008C00011968C918093F100DF01119681818093C4
:1008D000F100FD01319611968C918093F100DF01BA
:1008E000119681818093F100FD01319611968C91D2
:1008F0008093F100DF01119681818093F100FD0169
:10090000319611968C918093F100DF0111968181CF
:100910008093F100FD01319611968C918093F10046
:10092000DF01119681818093F100FD0131961196CE
:100930008C918093F100DF01119681818093F10009
:10094000FD01319611968C918093F100DF01119693
:1009500081818093F100FD01319611968C91119760
:100960008093F10081818093F10082818093F10076
:100970008AE38093E8002FBF80E408958FEF089505
:100980001F920F920FB60F9211248F939F93809115
:10099000E1001092E10083FF0FC01092E90091E0A6
:1009A0009093EB001092EC0092E29093ED0098E0AF
:1009B0009093F0001092020182FF12C08091020118
:1009C000882371F080910301882319F0815080936E
:1009D000030180910401882319F081508093040160
:1009E0009F918F910F900FBE0F901F9018951F929F
:1009F0000F920FB60F9211241F932F933F934F9393
:100A00005F936F937F938F939F93AF93BF93CF9396
:100A1000DF93EF93FF931092E9008091E80083FF4A
:100A200041C19091F1008091F1004091F10050E0BE
:100A30006091F100362F20E0422B532B2091F100E2
:100A400030E0E091F1007E2F60E0262B372BB09153
:100A5000F100A091F10062EF6093E800863009F0A8
:100A600057C063EB70E0CB010597FB013797C59149
:100A7000D491C417D507E9F4FC01C591D491C217EC
:100A8000D307B9F40296FC01459154910296FC01FA
:100A900084912B2F30E07A2F60E0262B372B2F3FCD
:100AA000310519F010F02FEF30E0281750F4822FA5
:100AB00008C0695F7F4F0796F0E0643E7F07A9F6A4
:100AC000F1C01EEF2091E80030E0B9016570707050
:100AD00061157105B9F322FDE8C0982F813208F045
:100AE00090E2BA01292F08C0DB016F5F7F4FFD0143
:100AF00034913093F10021502223B1F7490F511D59
:100B0000891B1093E8008823E9F69032D9F2CDC012
:100B1000853059F48EEF8093E8008091E80080FFE3
:100B2000FCCF40684093E300C0C0893049F5992369
:100B300009F076C0409302018EEF8093E80081E0D7
:100B40004DED50E08093E9009A014F5F5F4FF9014E
:100B500094919093EB00992371F09A012F5F3F4F8E
:100B6000FA0144914093EC00A9014F5F5F4FF901F6
:100B700024912093ED008F5F853021F78EE14BC0EB
:100B8000883061F4903809F04BC08091E80080FF14
:100B9000FCCF809102018093F10080C08823D1F4C2
:100BA0008091E80080FFFCCF923811F080E00DC00A
:100BB0002093E9008091EB0090E025E096958795E1
:100BC0002A95E1F781701092E9008093F10010926C
:100BD000F10064C0813011F0833011F5923001F5DD
:100BE00041155105E9F4422F4F77542F515054309D
:100BF000B8F49EEF9093E8004093E900833009F445
:100C000051C089E18093EB0081E090E002C0880F41
:100C1000991F4A95E2F78093EA001092EA0045C0D6
:100C20002115310509F03EC0913A11F58130D1F519
:100C300080E44EEF2091E80030E0B90165707070FB
:100C400061157105B9F322FD30C0982F813208F08B
:100C500090E2292F03C01092F10021502223D9F7EE
:100C6000891B4093E800882329F7903219F31DC0AF
:100C70009132C1F48930B1F480E42BEF9091E80017
:100C800092FFFCCF2093E800982F813208F090E289
:100C9000891BA1F78091E80080FFFCCF8EEF809345
:100CA000E80003C081E28093EB00FF91EF91DF91B8
:100CB000CF91BF91AF919F918F917F916F915F91F4
:100CC0004F913F912F911F910F900FBE0F901F904A
:060CD0001895F894FFCF17
:00000001FF
